{
  "contractName": "JamToken",
  "abi": [
    {
      "inputs": [],
      "stateMutability": "nonpayable",
      "type": "constructor"
    },
    {
      "anonymous": false,
      "inputs": [
        {
          "indexed": true,
          "internalType": "address",
          "name": "_owner",
          "type": "address"
        },
        {
          "indexed": true,
          "internalType": "address",
          "name": "_spender",
          "type": "address"
        },
        {
          "indexed": false,
          "internalType": "uint256",
          "name": "_value",
          "type": "uint256"
        }
      ],
      "name": "Aprroval",
      "type": "event"
    },
    {
      "anonymous": false,
      "inputs": [
        {
          "indexed": true,
          "internalType": "address",
          "name": "_from",
          "type": "address"
        },
        {
          "indexed": true,
          "internalType": "address",
          "name": "_to",
          "type": "address"
        },
        {
          "indexed": false,
          "internalType": "uint256",
          "name": "_value",
          "type": "uint256"
        }
      ],
      "name": "Transfer",
      "type": "event"
    },
    {
      "inputs": [
        {
          "internalType": "address",
          "name": "",
          "type": "address"
        },
        {
          "internalType": "address",
          "name": "",
          "type": "address"
        }
      ],
      "name": "allowance",
      "outputs": [
        {
          "internalType": "uint256",
          "name": "",
          "type": "uint256"
        }
      ],
      "stateMutability": "view",
      "type": "function",
      "constant": true
    },
    {
      "inputs": [
        {
          "internalType": "address",
          "name": "",
          "type": "address"
        }
      ],
      "name": "balanceOf",
      "outputs": [
        {
          "internalType": "uint256",
          "name": "",
          "type": "uint256"
        }
      ],
      "stateMutability": "view",
      "type": "function",
      "constant": true
    },
    {
      "inputs": [],
      "name": "decimals",
      "outputs": [
        {
          "internalType": "uint256",
          "name": "",
          "type": "uint256"
        }
      ],
      "stateMutability": "view",
      "type": "function",
      "constant": true
    },
    {
      "inputs": [],
      "name": "name",
      "outputs": [
        {
          "internalType": "string",
          "name": "",
          "type": "string"
        }
      ],
      "stateMutability": "view",
      "type": "function",
      "constant": true
    },
    {
      "inputs": [],
      "name": "symbol",
      "outputs": [
        {
          "internalType": "string",
          "name": "",
          "type": "string"
        }
      ],
      "stateMutability": "view",
      "type": "function",
      "constant": true
    },
    {
      "inputs": [],
      "name": "totalSuppy",
      "outputs": [
        {
          "internalType": "uint256",
          "name": "",
          "type": "uint256"
        }
      ],
      "stateMutability": "view",
      "type": "function",
      "constant": true
    },
    {
      "inputs": [
        {
          "internalType": "address",
          "name": "_to",
          "type": "address"
        },
        {
          "internalType": "uint256",
          "name": "_value",
          "type": "uint256"
        }
      ],
      "name": "transfer",
      "outputs": [
        {
          "internalType": "bool",
          "name": "success",
          "type": "bool"
        }
      ],
      "stateMutability": "nonpayable",
      "type": "function"
    },
    {
      "inputs": [
        {
          "internalType": "address",
          "name": "_from",
          "type": "address"
        },
        {
          "internalType": "address",
          "name": "_to",
          "type": "address"
        },
        {
          "internalType": "uint256",
          "name": "_value",
          "type": "uint256"
        }
      ],
      "name": "transferFRom",
      "outputs": [
        {
          "internalType": "bool",
          "name": "success",
          "type": "bool"
        }
      ],
      "stateMutability": "nonpayable",
      "type": "function"
    }
  ],
  "bytecode": "0x60806040526040518060400160405280600a81526020017f5363686f6f6c2044616f0000000000000000000000000000000000000000000081525060009080519060200190620000519291906200010d565b506040518060400160405280600281526020017f5344000000000000000000000000000000000000000000000000000000000000815250600190805190602001906200009f9291906200010d565b5069d3c21bcecceda10000006002556012600355348015620000c057600080fd5b50600254600460003373ffffffffffffffffffffffffffffffffffffffff1673ffffffffffffffffffffffffffffffffffffffff1681526020019081526020016000208190555062000222565b8280546200011b90620001bd565b90600052602060002090601f0160209004810192826200013f57600085556200018b565b82601f106200015a57805160ff19168380011785556200018b565b828001600101855582156200018b579182015b828111156200018a5782518255916020019190600101906200016d565b5b5090506200019a91906200019e565b5090565b5b80821115620001b95760008160009055506001016200019f565b5090565b60006002820490506001821680620001d657607f821691505b60208210811415620001ed57620001ec620001f3565b5b50919050565b7f4e487b7100000000000000000000000000000000000000000000000000000000600052602260045260246000fd5b610b0880620002326000396000f3fe608060405234801561001057600080fd5b50600436106100885760003560e01c806395d89b411161005b57806395d89b4114610129578063a9059cbb14610147578063d524ccbb14610177578063dd62ed3e1461019557610088565b806306fdde031461008d57806311a28dcc146100ab578063313ce567146100db57806370a08231146100f9575b600080fd5b6100956101c5565b6040516100a291906108a5565b60405180910390f35b6100c560048036038101906100c091906107a8565b610253565b6040516100d2919061088a565b60405180910390f35b6100e36104d9565b6040516100f091906108c7565b60405180910390f35b610113600480360381019061010e9190610743565b6104df565b60405161012091906108c7565b60405180910390f35b6101316104f7565b60405161013e91906108a5565b60405180910390f35b610161600480360381019061015c91906107f7565b610585565b60405161016e919061088a565b60405180910390f35b61017f6106ee565b60405161018c91906108c7565b60405180910390f35b6101af60048036038101906101aa919061076c565b6106f4565b6040516101bc91906108c7565b60405180910390f35b600080546101d290610a03565b80601f01602080910402602001604051908101604052809291908181526020018280546101fe90610a03565b801561024b5780601f106102205761010080835404028352916020019161024b565b820191906000526020600020905b81548152906001019060200180831161022e57829003601f168201915b505050505081565b6000600460008573ffffffffffffffffffffffffffffffffffffffff1673ffffffffffffffffffffffffffffffffffffffff168152602001908152602001600020548211156102a157600080fd5b600560008573ffffffffffffffffffffffffffffffffffffffff1673ffffffffffffffffffffffffffffffffffffffff16815260200190815260200160002060003373ffffffffffffffffffffffffffffffffffffffff1673ffffffffffffffffffffffffffffffffffffffff1681526020019081526020016000205482111561032a57600080fd5b81600460008673ffffffffffffffffffffffffffffffffffffffff1673ffffffffffffffffffffffffffffffffffffffff16815260200190815260200160002060008282546103799190610954565b9250508190555081600460008573ffffffffffffffffffffffffffffffffffffffff1673ffffffffffffffffffffffffffffffffffffffff16815260200190815260200160002060008282546103cf91906108fe565b9250508190555081600560008673ffffffffffffffffffffffffffffffffffffffff1673ffffffffffffffffffffffffffffffffffffffff16815260200190815260200160002060003373ffffffffffffffffffffffffffffffffffffffff1673ffffffffffffffffffffffffffffffffffffffff16815260200190815260200160002060008282546104629190610954565b925050819055508273ffffffffffffffffffffffffffffffffffffffff168473ffffffffffffffffffffffffffffffffffffffff167fddf252ad1be2c89b69c2b068fc378daa952ba7f163c4a11628f55a4df523b3ef846040516104c691906108c7565b60405180910390a3600190509392505050565b60035481565b60046020528060005260406000206000915090505481565b6001805461050490610a03565b80601f016020809104026020016040519081016040528092919081815260200182805461053090610a03565b801561057d5780601f106105525761010080835404028352916020019161057d565b820191906000526020600020905b81548152906001019060200180831161056057829003601f168201915b505050505081565b600081600460003373ffffffffffffffffffffffffffffffffffffffff1673ffffffffffffffffffffffffffffffffffffffff1681526020019081526020016000205410156105d357600080fd5b81600460003373ffffffffffffffffffffffffffffffffffffffff1673ffffffffffffffffffffffffffffffffffffffff16815260200190815260200160002060008282546106229190610954565b9250508190555081600460008573ffffffffffffffffffffffffffffffffffffffff1673ffffffffffffffffffffffffffffffffffffffff168152602001908152602001600020600082825461067891906108fe565b925050819055508273ffffffffffffffffffffffffffffffffffffffff163373ffffffffffffffffffffffffffffffffffffffff167fddf252ad1be2c89b69c2b068fc378daa952ba7f163c4a11628f55a4df523b3ef846040516106dc91906108c7565b60405180910390a36001905092915050565b60025481565b6005602052816000526040600020602052806000526040600020600091509150505481565b60008135905061072881610aa4565b92915050565b60008135905061073d81610abb565b92915050565b60006020828403121561075557600080fd5b600061076384828501610719565b91505092915050565b6000806040838503121561077f57600080fd5b600061078d85828601610719565b925050602061079e85828601610719565b9150509250929050565b6000806000606084860312156107bd57600080fd5b60006107cb86828701610719565b93505060206107dc86828701610719565b92505060406107ed8682870161072e565b9150509250925092565b6000806040838503121561080a57600080fd5b600061081885828601610719565b92505060206108298582860161072e565b9150509250929050565b61083c8161099a565b82525050565b600061084d826108e2565b61085781856108ed565b93506108678185602086016109d0565b61087081610a93565b840191505092915050565b610884816109c6565b82525050565b600060208201905061089f6000830184610833565b92915050565b600060208201905081810360008301526108bf8184610842565b905092915050565b60006020820190506108dc600083018461087b565b92915050565b600081519050919050565b600082825260208201905092915050565b6000610909826109c6565b9150610914836109c6565b9250827fffffffffffffffffffffffffffffffffffffffffffffffffffffffffffffffff0382111561094957610948610a35565b5b828201905092915050565b600061095f826109c6565b915061096a836109c6565b92508282101561097d5761097c610a35565b5b828203905092915050565b6000610993826109a6565b9050919050565b60008115159050919050565b600073ffffffffffffffffffffffffffffffffffffffff82169050919050565b6000819050919050565b60005b838110156109ee5780820151818401526020810190506109d3565b838111156109fd576000848401525b50505050565b60006002820490506001821680610a1b57607f821691505b60208210811415610a2f57610a2e610a64565b5b50919050565b7f4e487b7100000000000000000000000000000000000000000000000000000000600052601160045260246000fd5b7f4e487b7100000000000000000000000000000000000000000000000000000000600052602260045260246000fd5b6000601f19601f8301169050919050565b610aad81610988565b8114610ab857600080fd5b50565b610ac4816109c6565b8114610acf57600080fd5b5056fea2646970667358221220ba3c1ca586daca5252cbdb47d46bfcc21a3b98e42aaaa6db2b1d786c33c619ab64736f6c63430008040033",
  "immutableReferences": {},
  "source": "// SPDX-License-Identifier: MIT\r\npragma solidity >=0.4.22 <0.9.0;\r\n\r\ncontract JamToken {\r\n\r\n    // declaraciones\r\n    string public name = \"School Dao\";\r\n    string public symbol = \"SD\";\r\n    uint public totalSuppy = 1000000000000000000000000;\r\n    uint public decimals = 18;\r\n\r\n    // evento para la transferencia de tokens de un usuario\r\n    event Transfer(\r\n        address indexed _from,\r\n        address indexed _to,\r\n        uint _value\r\n    );\r\n\r\n    // event para la aprovacion de un operador\r\n    event Aprroval (\r\n        address indexed _owner,\r\n        address indexed _spender,\r\n        uint _value\r\n    );\r\n\r\n     // Estructuras de datos \r\n    mapping(address => uint256) public balanceOf;\r\n    mapping(address => mapping(address => uint)) public allowance;\r\n\r\n    // constructor\r\n    constructor() {\r\n        balanceOf[msg.sender] = totalSuppy;\r\n    }\r\n\r\n    // tranferencia de tokens de un usuario\r\n    function transfer(address _to, uint _value) public returns (bool success) {\r\n        require(balanceOf[msg.sender] >= _value);\r\n        balanceOf[msg.sender] -= _value;\r\n        balanceOf[_to] += _value;\r\n        emit Transfer(msg.sender, _to, _value);\r\n        return true;\r\n    }\r\n\r\n    //transferencia de tokens especificando el emisor\r\n    //owner (20) tokens - operaodr 5 tokens\r\n    function transferFRom(address _from, address _to, uint _value) public returns (bool success) {\r\n        require(_value <= balanceOf[_from]);\r\n        require(_value <= allowance[_from][msg.sender]);\r\n        balanceOf[_from] -= _value;\r\n        balanceOf[_to] += _value;\r\n        allowance[_from][msg.sender] -= _value;\r\n        emit Transfer(_from, _to, _value);\r\n        return true;\r\n    }\r\n}",
  "sourcePath": "C:\\trabajos3\\Dapps\\DApp\\src\\contracts\\JamToken.sol",
  "compiler": {
    "name": "solc",
    "version": "0.8.4+commit.c7e474f2.Emscripten.clang"
  },
  "schemaVersion": "3.4.8",
  "updatedAt": "2022-08-19T15:59:07.679Z",
  "networkType": "ethereum",
  "devdoc": {
    "kind": "dev",
    "methods": {},
    "version": 1
  },
  "userdoc": {
    "kind": "user",
    "methods": {},
    "version": 1
  }
}